{
  "contractName": "TimedCrowdsale",
  "abi": [
    {
      "anonymous": false,
      "inputs": [],
      "name": "Finished",
      "type": "event"
    },
    {
      "anonymous": false,
      "inputs": [],
      "name": "notFinished",
      "type": "event"
    },
    {
      "constant": false,
      "inputs": [],
      "name": "run",
      "outputs": [],
      "payable": false,
      "stateMutability": "nonpayable",
      "type": "function"
    }
  ],
  "bytecode": "0x608060405234801561001057600080fd5b5060fc8061001f6000396000f3fe608060405260043610603f576000357c0100000000000000000000000000000000000000000000000000000000900463ffffffff168063c0406226146044575b600080fd5b348015604f57600080fd5b5060566058565b005b605e60c1565b156092577f1578538d7847a99e818f068c208cae026fdafea1610a44858adeff8dc70aeb2b60405160405180910390a160bf565b7f8dceef0a4fab8e7e314beec2c2797a5c64ff38479bde8e82cef30465a224459a60405160405180910390a15b565b6000635c2aad8042101590509056fea165627a7a723058209012fc922d5cf067254574e3b2de030e0f2ce2b56ce4576fc2b949860db5183d0029",
  "source": "pragma solidity ^0.5.0;\n\ncontract TimedCrowdsale {\n\n  event Finished();\n  event notFinished();\n\n  // Sale should finish exactly at January 1, 2019\n  function isSaleFinished() private returns (bool) {\n    return block.timestamp >= 1546300800;\n  }\n\n  function run() public {\n    if (isSaleFinished()) {\n        emit Finished();\n    } else {\n        emit notFinished();\n    }\n  }\n\n}",
  "sourcePath": "/home/jonas/Repositories/SC-Seminar/swc116-bvaapft/contracts/timed_crowdsale.sol",
  "compiler": {
    "name": "solc",
    "version": "0.5.0+commit.1d4f565a.Emscripten.clang"
  },
  "schemaVersion": "3.4.16",
  "updatedAt": "2023-10-13T10:02:22.519Z",
  "devdoc": {
    "methods": {}
  },
  "userdoc": {
    "methods": {}
  }
}