{
  "contractName": "TimeLock",
  "abi": [
    {
      "constant": false,
      "inputs": [
        {
          "name": "_time",
          "type": "uint256"
        },
        {
          "name": "_amount",
          "type": "uint256"
        }
      ],
      "name": "lockEth",
      "outputs": [],
      "payable": true,
      "stateMutability": "payable",
      "type": "function"
    },
    {
      "constant": false,
      "inputs": [],
      "name": "withdraw",
      "outputs": [],
      "payable": false,
      "stateMutability": "nonpayable",
      "type": "function"
    }
  ],
  "bytecode": "0x608060405234801561001057600080fd5b506104c2806100206000396000f3fe60806040526004361061004c576000357c0100000000000000000000000000000000000000000000000000000000900463ffffffff1680631854e8e0146100515780633ccfd60b14610089575b600080fd5b6100876004803603604081101561006757600080fd5b8101908080359060200190929190803590602001909291905050506100a0565b005b34801561009557600080fd5b5061009e6101b5565b005b8034141515610117576040517f08c379a00000000000000000000000000000000000000000000000000000000081526004018080602001828103825260168152602001807f6d7573742073656e6420657861637420616d6f756e740000000000000000000081525060200191505060405180910390fd5b600e8281151561012357fe5b0443016000803373ffffffffffffffffffffffffffffffffffffffff1673ffffffffffffffffffffffffffffffffffffffff16815260200190815260200160002060010181905550806000803373ffffffffffffffffffffffffffffffffffffffff1673ffffffffffffffffffffffffffffffffffffffff168152602001908152602001600020600001819055505050565b60008060003373ffffffffffffffffffffffffffffffffffffffff1673ffffffffffffffffffffffffffffffffffffffff1681526020019081526020016000206000015411151561026e576040517f08c379a00000000000000000000000000000000000000000000000000000000081526004018080602001828103825260108152602001807f6e6f20616d6f756e74206c6f636b65640000000000000000000000000000000081525060200191505060405180910390fd5b6000803373ffffffffffffffffffffffffffffffffffffffff1673ffffffffffffffffffffffffffffffffffffffff168152602001908152602001600020600101544310151515610327576040517f08c379a00000000000000000000000000000000000000000000000000000000081526004018080602001828103825260148152602001807f6c6f636b20706572696f64206e6f74206f76657200000000000000000000000081525060200191505060405180910390fd5b60008060003373ffffffffffffffffffffffffffffffffffffffff1673ffffffffffffffffffffffffffffffffffffffff16815260200190815260200160002060000154905060008060003373ffffffffffffffffffffffffffffffffffffffff1673ffffffffffffffffffffffffffffffffffffffff1681526020019081526020016000206000018190555060003373ffffffffffffffffffffffffffffffffffffffff168260405180600001905060006040518083038185875af1925050503d8060008114610414576040519150601f19603f3d011682016040523d82523d6000602084013e610419565b606091505b50509050801515610492576040517f08c379a000000000000000000000000000000000000000000000000000000000815260040180806020018281038252600f8152602001807f7472616e73666572206661696c6564000000000000000000000000000000000081525060200191505060405180910390fd5b505056fea165627a7a7230582063b228a20eb8cfb4524dc5367ee053b3f9dbcdf48de26281e07b1dea225b8a520029",
  "source": "/*\n * @author: Kaden Zipfel\n */\n\npragma solidity ^0.5.0;\n\ncontract TimeLock {\n    struct User {\n        uint amount; // amount locked (in eth)\n        uint unlockBlock; // minimum block to unlock eth\n    }\n\n    mapping(address => User) private users;\n\n    // Tokens should be locked for exact time specified\n    function lockEth(uint _time, uint _amount) public payable {\n        require(msg.value == _amount, 'must send exact amount');\n        users[msg.sender].unlockBlock = block.number + (_time / 14);\n        users[msg.sender].amount = _amount;\n    }\n\n    // Withdraw tokens if lock period is over\n    function withdraw() public {\n        require(users[msg.sender].amount > 0, 'no amount locked');\n        require(block.number >= users[msg.sender].unlockBlock, 'lock period not over');\n\n        uint amount = users[msg.sender].amount;\n        users[msg.sender].amount = 0;\n        (bool success, ) = msg.sender.call.value(amount)(\"\");\n        require(success, 'transfer failed');\n    }\n}",
  "sourcePath": "/home/jonas/Repositories/SC-Seminar/swc116-bvaapft/dev/contracts/time_lock.sol",
  "compiler": {
    "name": "solc",
    "version": "0.5.0+commit.1d4f565a.Emscripten.clang"
  },
  "schemaVersion": "3.4.16",
  "updatedAt": "2023-10-13T10:13:09.686Z",
  "networkType": "ethereum",
  "devdoc": {
    "methods": {}
  },
  "userdoc": {
    "methods": {}
  }
}